:020000040000FA
:10000000023686EFFD7C00C394097480948050040E
:10001000AE07801BED64304C70047E068011EF64E7
:100020004070047E078008EF1313543F2406FEAF90
:10003000062222023350EC4D6011E8497017ED336F
:10004000EC3304600DE4FCFFFEFD22E933E83304E9
:1000500070F80201E61201B158046009E4CC248171
:1000600050062850090201F02840030201EDC0E0CB
:10007000EB4A7044B98006D0E0FB0201DCEF4E7021
:100080001CBD8008EBFFEAFEE9FD80EBE98DF0A4E2
:10009000FEE5F002011FE9CDF9EAFEEBFFEF89F082
:1000A000A4FCE5F0CE89F0A42EFFE435F0CD89F074
:1000B000A42DFEE435F08067EF4E7005BD80D7803B
:1000C000C3EF8BF0A4ACF0EE8BF0A42CFCE435F085
:1000D000F8EF8AF0A42CE5F038FCE433CB8DF0A4E3
:1000E0002CFCE5F03BF8EE8AF0A42CFCE5F038F8A7
:1000F000E433CF89F0A42CFCE5F038CF3400CE896E
:10010000F0A42FFFE5F03EFEE433C98DF0A42EFEEF
:10011000E5F039CD8AF0A42FFFE5F03EFEE43DFD89
:1001200033D0E0FB50070BBB000F0201F0EC2CFCBE
:10013000EF33FFEE33FEED33FD0201C875F0208092
:100140000E75F010800575F0087D007E007F00338D
:1001500092D530D50312077AEC334010EF33FFEE1F
:1001600033FEED33FDEC33FCD5F0ED22E5F0247EDB
:10017000A2D513CC92E7CDCEFF22EDD2E7CD33EC62
:100180003392D524814006E4FFFEFDFC22FCE4CF3F
:10019000CECDCC24E0501174FF80EDC3CC13CCCD78
:1001A00013CDCE13CECF13CF0470F030D5DE0207BF
:1001B0007AE9D2E7C933E833F892D5EDD2E7CD3307
:1001C000EC33FC5002B2D522EC30E7100FBF000C2C
:1001D0000EBE00080DBD00040BEB6014A2D5EB139E
:1001E000FCED92E7FD2274FFFCFDFEFF22E480F8A7
:1001F000A2D574FF13FC7D80E480EFF920E736245C
:10020000F950037907E4F42402FBE58215827002B9
:100210001583DBF6E024FB501BE96014E4F0E58273
:10022000158270021583E004F0B40A08E4F0D9EEF8
:100230007401F00A22C2D522ED33EC3392D5FA6074
:100240002AB4FF33EDC2E77BFF60067A02795DE4F2
:10025000227A02796620D5047A027961224E614EB3
:10026000002B494E46002D494E4600E47A08F0A383
:10027000DAFC7B00740722C083C082ECC0E0EDC0D2
:10028000E0EEC0E0EFC0E0EA75F010A4CAABF07594
:10029000F04DA42BFBE435F0FCEA2410FAEB34C556
:1002A000FBEC34D9FCEDC2E7FF75F056A4F4241141
:1002B000C5F0F434C58FF0A42AE5F03BE43CF0200F
:1002C000E714120505D0E0FFD0E0FED0E0FDD0E05D
:1002D000FC1204388014F404120505D0E0FFD0E0CD
:1002E000FED0E0FDD0E0FC120036D082D083E0FAF0
:1002F000EDD2E7CD33EC332482FBE4C3CF33CFCE52
:1003000033CECD33CD33DBF37B0775F00A84600445
:10031000F0A31B0AE5F0F0A38FF0740AA4FFACF081
:100320008EF0740AA42CFEACF050010C8DF0740A0F
:10033000A42CFDE435F0F0A3DBDE7407220201E615
:10034000E86480F8E933E83360110460F0ED33ECE1
:10035000337009E8FCE9FDEAFEEBFF220460DED31E
:10036000EB9FEA9EE99DE8C2E78CF0C2F795F0406A
:100370000CE8CCF8E9CDF9EACEFAEBCFFB1201B1EB
:1003800085D0F05804700320D5B3E80470075002FC
:10039000B2D50201F092D5EC0460F7E4CCC0E0C322
:1003A00098F8603B94186008400DD0E0FB0201C84B
:1003B000E4FBFAC9FC8028E830E406E4C9FBE4CA9F
:1003C000FCE830E305E4C9CACBFCE854076010F848
:1003D000C3E913F9EA13FAEB13FBEC13FCD8F13081
:1003E000F52FC3E49CFCEF9BFFEE9AFEED99FDD048
:1003F000E0FBEF4E4D4C701222DB030201EDEC2CC2
:10040000FCEF33FFEE33FEED33FDED30E7EB0201A1
:10041000C8EF2BFFEE3AFEED39FDD0E0FB50130B99
:10042000BB00030201F0ED13FDEE13FEEF13FFEC32
:1004300013FC0201C80201F0EC5D046005E85904F8
:1004400070030201E61201B1580460F6EC4860F254
:10045000EC7004FDFEFF22C860DB2481C85009C394
:1004600098600250060201ED9850CAF582E9294BC6
:100470004A7005AB820201DC75F0007C1A7880C3FB
:10048000EF9BEE9AED99400DC3EF9BFFEE9AFEEDC8
:1004900099FDE842F0DC23ACF0D0E0FFD0E0FED0E4
:1004A000E0FDAB8220E7101BEB60BAEC2CFCEF33D5
:1004B000FFEE33FEED33FD0201C8E803F830E70537
:1004C000C0F075F000EF2FFFEE33FEED33FD40B8C6
:1004D00030E7C280AA3F8000004120000042C800EF
:1004E00000447A0000461C400047C3500049742471
:1004F000004B1896804CBEBC205A0E1BCA6753C2D4
:100500001C749DC5AEFB60065407601C23231205B6
:1005100033EB5438600912051F12052E120036EC19
:10052000F8EDF9EEFAEFCB22EB12052E80F15438FC
:1005300003241C9004D5FE93FC0EEE93FD0EEE9367
:100540000ECE93FF22E709F608DFFA8046E709F2AC
:1005500008DFFA803E88828C83E709F0A3DFFA8007
:1005600032E309F608DFFA8078E309F208DFFA805F
:100570007088828C83E309F0A3DFFA806489828A21
:1005800083E0A3F608DFFA805889828A83E0A3F229
:1005900008DFFA804C80D280FA80C680D4806980DF
:1005A000F28033801080A680EA809A80A880DA806A
:1005B000E280CA803389828A83ECFAE493A3C8C5B7
:1005C00082C8CCC583CCF0A3C8C582C8CCC583CCB7
:1005D000DFE9DEE7800D89828A83E493A3F608DFF2
:1005E000F9ECFAA9F0EDFB2289828A83ECFAE0A308
:1005F000C8C582C8CCC583CCF0A3C8C582C8CCC549
:1006000083CCDFEADEE880DB89828A83E493A3F28D
:1006100008DFF980CC88F0EF60010E4E60C388F0EF
:10062000ED2402B4040050B9F582EB2402B40400B6
:1006300050AF232345822390059573C2D530F70729
:10064000B2D563F0FF05F030E70CB2D5F404846353
:10065000F0FF05F080018430D502F40422BB0106CE
:1006600089828A83E0225002E722BBFE02E32289CC
:10067000828A83E49322BB010CE58229F582E5831B
:100680003AF583E0225006E92582F8E622BBFE0611
:10069000E92582F8E222E58229F582E5833AF583AD
:1006A000E49322BB010689828A83F0225002F7225A
:1006B000BBFE01F322F8BB010DE58229F582E5833B
:1006C0003AF583E8F0225006E92582C8F622BBFEFF
:1006D00005E92582C8F222C2D5EC30E709B2D5E49B
:1006E000C39DFDE49CFCEE30E715B2D5E4C39FFF4B
:1006F000E49EFE120AE8C3E49DFDE49CFC80031224
:100700000AE830D507C3E49FFFE49EFE22A3F8E089
:10071000C5F025F0F0E582158270021583E0C83837
:10072000F0E822BB010789828A83020B3D500B0946
:10073000C5F027F7C5F01937F722BBFE0D09F8E31E
:1007400025F0F3C5F019E338F322F889828A83741F
:10075000019325F0C5F0F8E4933822BB010A8982A1
:100760008A83F0E5F0A3F0225006F709A7F01922DA
:10077000BBFE06F3E5F009F31922C3E49FFFE49EF4
:10078000FEE49DFDE49CFC22EB9FF5F0EA9E42F026
:10079000E99D42F0E89C45F022E8600FECC313FCB1
:1007A000ED13FDEE13FEEF13FFD8F122E8600FEF1B
:1007B000C333FFEE33FEED33FDEC33FCD8F122BB47
:1007C000010789828A83020BAE5005E9F8020BA269
:1007D000BBFE05E9F8020BBA89828A83020BC6BB0D
:1007E000010DE58229F582E5833AF583020BAE50CF
:1007F00007E92582F8020BA2BBFE07E92582F80271
:100800000BBAE58229F582E5833AF583020BC6BB74
:10081000010789828A8302084D5005E9F8020BD648
:10082000BBFE05E9F8020BE222BB010DE58229F5CA
:1008300082E5833AF58302084D5007E92582F802E4
:100840000BD6BBFE07E92582F8020BE222ECF0A3EF
:10085000EDF0A3EEF0A3EFF022A8828583F0D08321
:10086000D082120870120870120870120870E473B7
:10087000E493A3C583C5F0C583C8C582C8F0A3C5EA
:1008800083C5F0C583C8C582C822BB010789828A97
:10089000830208595005E9F8020BEEBBFE05E9F8A2
:1008A000020C0722BB010DE58229F582E5833AF5AA
:1008B000830208595007E92582F8020BEEBBFE07B8
:1008C000E92582F8020C0722F8E0FBA3A3E0F92552
:1008D000F0F0E582158270021583E0FA38F022EB21
:1008E000F0A3EAF0A3E9F022D083D082F8E4937079
:1008F00012740193700DA3A393F8740193F5828889
:1009000083E4737402936860EFA3A3A380DFD083B2
:10091000D082F8E4937012740193700DA3A393F83E
:10092000740193F5828883E473740293B5F00674BE
:1009300003936860E9A3A3A3A380D8E3F5F009E2D9
:1009400008B5F06D606B80F3E3F5F009E608B5F0EB
:1009500060605E80F387F009E608B5F0546052806D
:10096000F487F009E208B5F048604680F488828C8C
:100970008387F009E0A3B5F038603680F488828C74
:100980008387F009E493A3B5F027602580F388827C
:100990008C83E3F5F009E0A3B5F016601480F388CA
:1009A000828C83E3F5F009E493A3B5F00460028040
:1009B000F2020A66808580E7808E80D2803C8015B6
:1009C000806C807E809B80B5808B80A1804F807002
:1009D000803A020A7289828A83ECFAE493F5F0A3E2
:1009E000C8C582C8CCC583CCE493A3C8C582C8CC93
:1009F000C583CCB5F070606E80E189828A83E49310
:100A0000F5F0A3E208B5F05E605C80F289828A832B
:100A1000E0F5F0A3E608B5F04D604B80F389828ADB
:100A200083E0F5F0A3E208B5F03C603A80F38982F8
:100A30008A83E493F5F0A3E608B5F02A602880F2F3
:100A4000805389828A83ECFAE493F5F0A3C8C582C7
:100A5000C8CCC583CCE0A3C8C582C8CCC583CCB5FF
:100A6000F004600280E27FFFB5F0020F2240027FB7
:100A7000012289828A83ECFAE0F5F0A3C8C582C816
:100A8000CCC583CCE0A3C8C582C8CCC583CCB5F0A7
:100A9000D560D380E389828A83ECFAE0F5F0A3C8BD
:100AA000C582C8CCC583CCE493A3C8C582C8CCC5D5
:100AB00083CCB5F0B160AF80E288F0ED2402B404DD
:100AC0000050A3F582EB2402B4040050992323457F
:100AD00082239009B473EF8DF0A4A8F0CF8CF0A41A
:100AE00028CE8DF0A42EFE22BC000BBE0029EF8D77
:100AF000F084FFADF022E4CCF875F008EF2FFFEEA4
:100B000033FEEC33FCEE9DEC984005FCEE9DFE0FB1
:100B1000D5F0E9E4CEFD22EDF8F5F0EE8420D21C0C
:100B2000FEADF075F008EF2FFFED33FD4007985054
:100B300006D5F0F222C398FD0FD5F0EA22C5F0F8F1
:100B4000A3E028F0C5F0F8E582158270021583E075
:100B500038F022E88FF0A4CC8BF0A42CFCE98EF0C6
:100B6000A42CFC8AF0EDA42CFCEA8EF0A4CDA8F015
:100B70008BF0A42DCC3825F0FDE98FF0A42CCD35D9
:100B8000F0FCEB8EF0A4FEA9F0EB8FF0A4CFC5F043
:100B90002ECD39FEE43CFCEAA42DCE35F0FDE43C3C
:100BA000FC22E6FC08E6FD08E6FE08E6FF22E0FC83
:100BB000A3E0FDA3E0FEA3E0FF22E2FC08E2FD08C3
:100BC000E2FE08E2FF22E493FC740193FD740293B9
:100BD000FE740393FF22ECF608EDF608EEF608EF3C
:100BE000F622ECF208EDF208EEF208EFF222D083E2
:100BF000D082E493F608740193F608740293F60821
:100C0000740393F6740473D083D082E493F208746F
:100C10000193F208740293F208740393F27404735C
:100C2000BB011A89828A83D0F0D0E0F8D0E0F9D0F5
:100C3000E0FAD0E0FBE8C0E0C0F00208DF5016E9BF
:100C4000F8D083D082D0E0F9D0E0FAD0E0FBC082C7
:100C5000C083020C6FBBFE16E9F8D083D082D0E0CF
:100C6000F9D0E0FAD0E0FBC082C083020C7822EB1E
:100C7000F608EAF608E9F622EBF208EAF208E9F2E9
:100C800022E50824E5F582E43400F583E005082236
:100C90009000E23007039000E5E475F0011208C807
:100CA00002065D2000E97F2ED2008018EF540F2449
:100CB00090D43440D4FF30040BEF24BFB41A00505A
:100CC000032461FFE50960021509050CE50C7002BB
:100CD000050B30070E9000E2E475F0011208C8EF32
:100CE0000206A30244AB7403D2078003E4C207F5F3
:100CF000089000E21208DFE4F509F50BF50CE509B0
:100D000060077F20120CC480F5750AFFC201C20083
:100D1000C202C203C205C206C208120C90FF700DC7
:100D20003007057F00120CD5AF0CAE0B22B4255F47
:100D3000C2D5C204120C90FF24D0B40A00501A7518
:100D4000F00A780930D50508B6FF0106C6A426F6D4
:100D500020D5047002D20380D924CFB41A00EF50FA
:100D600004C2E5D204020FC7D20180C6D20080C0FF
:100D7000D20280BCD2D580BAD20580B47F20120CBA
:100D8000C42002077401B5090040F1120C81FF1262
:100D90000CC4020CFED208D2068095120C81FB1204
:100DA0000C81FA120C81F94A4B700679C57A107BD6
:100DB000FF20022EE509602A7E008E8275830012D4
:100DC000067660060EEE650A70F0C2D5EBC0E0EA6A
:100DD000C0E0E9C0E0EE121028D0E0F9D0E0FAD08F
:100DE000E0FB12065DFF60AAEBC0E0EAC0E0E9C0EC
:100DF000E0120CC4D0E02401F9D0E03400FAD0E0D5
:100E0000FBE50A0460DCD50AD98087D20280A212F1
:100E1000100A60F7E50A7001041201FBA90A600DCF
:100E2000E50A600914F50A1210B2EF60F3EA30E740
:100E300002F404C3995079EAF4250A0430E701E486
:100E400004F50A800D12100A60C1EA050A250A128B
:100E500001FBEA900111F030E701E4250A04D50A0C
:100E60000420050114121028E4C0E01210B2900111
:100E700011E0601320E70714F0120CAC802204F09C
:100E8000D0E014C0E07F00120CACE50A6007120C41
:100E9000A3150A800B300503120CA3D0E0020CFE50
:100EA000D0E00480C412100A609EE50A041201FB1F
:100EB000900111EAF0E50A20050260010424041201
:100EC000102874FF04C0E01210B2120CACE50A2026
:100ED00005026003120CA3D0E0B50AE87F45120CAE
:100EE000B6900111E07F2B30E7047F2DF404C0E0C1
:100EF000120CC4D0E075F00A84C0F0120CADD0E042
:100F0000120CAD020CFE791080027908C206C208EC
:100F10008008D2D5790A8004790AC2D5E50A04701E
:100F200002F50AE4FAFDFEFF120C81FC7B082001A9
:100F300013120C81FD7B1030000A120C81FE120C82
:100F400081FF7B20EC3382D592D55013C3E430006F
:100F5000069FFFE49EFEE42001039DFDE49CFCE46B
:100F6000CBF8C201EC700CCFCECDCCE824F8F870F1
:100F7000F38017C3EF33FFEE33FEED33FDEC33FCAC
:100F8000EB33FB994002FB0FD8E9EB300105F8D0B9
:100F9000E0C448B201C0E00AEC4D4E4F78207B001F
:100FA00070C2EAB50A0040BCC0E012102AD0F0D0EE
:100FB000E0200104C4C0E0C4B201C0F0120CADD006
:100FC000F0D5F0EB020CFE1208E80D9B530F06580B
:100FD0000D6C4C0D68420F0A4F0F12440F12490D51
:100FE00081430F18550E45460EA5450E0F4710E5D7
:100FF000500D702D0D742E0D972B0D78230D95200F
:1010000010CE2A0D304800000D8FE50AB4FF03759D
:101010000A06120C81FC120C81FD120C81FE120CCE
:1010200081FF90010A020238790AA2D52003143008
:101030000509B910020404B9080104A2D52006026A
:101040005001042002689202B509005034C0E07FCC
:10105000203003197F30A20272067205500F121061
:1010600081C202C206C205C2087F30800F3005036C
:10107000E9C0E0120CC4300503D0E0F9D0E0B509B6
:10108000CC3005177F30B9100C120CC47F583004D7
:10109000077F788003B90803120CC43002057F2D46
:1010A000020CC47F202008F87F2B2006F322920236
:1010B00080CF7F00B40700500B240AF582E434018E
:1010C000F583E0FF22286E756C6C2900D201120CAA
:1010D000813001F8C201780930D50108F6020D30DF
:1010E0002D50434958120C812403B405004001E4FB
:1010F0009010E093120CB5743A120CB5D203750936
:1011000004020F06900008EFF0AB05E4FAA3120802
:101110005900000000E4900027F0A3F0900027E0C1
:10112000FEA3E054FC4402FF900027EEF0A3EFF092
:10113000900027E0FEA3E0FFE4FCFD9000231208EE
:101140004DEBB4120040030214D0901151F828283E
:101150007302118702118A0214D002118D021190BC
:1011600002144C02144C02144C0211D80212210237
:1011700012CD02134D0213CD02144C02144F021172
:101180008D02144C0211D80212CD0213CD02144F5D
:10119000900019E4F0A304F0900019E0FEA3E0FF32
:1011A000E4FCFD90001512084DE4900019F0A3F046
:1011B000900019E0FEA3E0FFE4FCFD90001112088E
:1011C0004DE4900027F0A3F0900027E05480FEA3A8
:1011D000E0FFEE4402021314900019E4F0A3741E21
:1011E000F0900019E0FEA3E0FFE4FCFD9000151272
:1011F000084D7407900019F0A3F0900019E0FEA3C9
:10120000E0FFE4FCFD90001112084DE4900027F08F
:10121000A3F0900027E05480FEA3E0FFEE441F807F
:1012200047900019E4F0A37411F0900019E0FEA3B8
:10123000E0FFE4FCFD90001512084D7404900019C5
:10124000F0A3F0900019E0FEA3E0FFE4FCFD9000A5
:101250001112084DE4900027F0A3F0900027E0540D
:1012600080FEA3E0FFEE4412900027F0A3EFF09081
:101270000009A3A3A3E0543FFF900027E0FCA3E0F4
:1012800054C0FDECFEED4FFF900027EEF0A3EFF011
:10129000900027E0FEA3E0FFE4FCFD90001F120891
:1012A0004D900015A3A3E0FFA3E0900027CFF0A38B
:1012B000EFF0900027E0F0A3E054FCF0900027E06E
:1012C000FEA3E0FFE4FCFD9000230214CB90001984
:1012D000E4F0A3740EF0900019E0FEA3E0FFE4FC3C
:1012E000FD90001512084D7403900019F0A3F090C2
:1012F0000019E0FEA3E0FFE4FCFD90001112084D90
:10130000E4900027F0A3F0900027E05480FEA3E0D3
:10131000FFEE440F900027F0A3EFF0900009A3A385
:10132000A3E0543FFF900027E0FCA3E054C0FDEC95
:10133000FEED4FFF900027EEF0A3EFF0900027E0C6
:10134000FEA3E0FFE4FCFD90001F0214CB90001907
:10135000E4F0A37408F0900019E0FEA3E0FFE4FCC1
:10136000FD90001512084D7402900019F0A3F09042
:101370000019E0FEA3E0FFE4FCFD90001112084D0F
:10138000E4900027F0A3F0900027E05480FEA3E053
:10139000FFEE4409900027F0A3EFF0900009A3A30B
:1013A000A3E0543FFF900027E0FCA3E054C0FDEC15
:1013B000FEED4FFF900027EEF0A3EFF0900027E046
:1013C000FEA3E0FFE4FCFD90001F0214CB90001987
:1013D000E4F0A37406F0900019E0FEA3E0FFE4FC43
:1013E000FD90001512084D7401900019F0A3F090C3
:1013F0000019E0FEA3E0FFE4FCFD90001112084D8F
:10140000E4900027F0A3F0900027E05480FEA3E0D2
:10141000FFEE4407900027F0A3EFF0900009A3A38C
:10142000A3E0543FFF900027E0FCA3E054C0FDEC94
:10143000FEED4FFF900027EEF0A3EFF0900027E0C5
:10144000FEA3E0FFE4FCFD90001F807F7FFF229061
:101450000019E4F0A37402F0900019E0FEA3E0FF8D
:10146000E4FCFD90001512084DE4900019F0A3F083
:10147000900019E0FEA3E0FFE4FCFD9000111208CB
:101480004DE4900027F0A3F0900027E05480FEA3E5
:10149000E0FFEE4403900027F0A3EFF0900009A3D3
:1014A000A3A3E0543FFF900027E0FCA3E054C0FD5D
:1014B000ECFEED4FFF900027EEF0A3EFF090002739
:1014C000E0FEA3E0FFE4FCFD90001F12084D800346
:1014D0007FFF22900015E0FCA3E0FDA3E0FEA3E067
:1014E000FF78101207AC900011E0F8A3E0F9A3E038
:1014F000FAA3E02FFFEA3EFEE93DFDE83CFC900048
:101500000D12084D90000DE0FCA3E0FDA3E0FEA34A
:10151000E0FF90002C12084D7D08123A2CAA07EA31
:1015200060037FFE22900023E0FCA3E0FDA3E0FE29
:10153000A3E0FF78101207AC90001FE0F8A3E0F9D9
:10154000A3E0FAA3E02FFFEA3EFEE93DFDE83CFC04
:1015500090001B12084D90001BE0FCA3E0FDA3E0EF
:10156000FEA3E0FF90002C12084D7D0C123A2CAA2D
:1015700007EAAF0260027FFD229000E9EFF0A3EDE1
:10158000F0A3EBF0A3EAF0A3E9F0E49000F5F0A3F8
:10159000F0900135F09000EAE075F00CA42450FFC3
:1015A000E435F0FE90011BF0FCA3EFF0FD9000E9A4
:1015B0007A01791D122236900135EFF060037FFF2A
:1015C0002290011DE0FCA3E0FDA3E0FEA3E0FF905C
:1015D000012912084D7A0179299000F27401F0A3D3
:1015E0007401F0A37429F0900129E030E7037FFE35
:1015F00022900121E0FCA3E0FDA3E0FEA3E0FF9028
:10160000012D12084D900125E0FCA3E0FDA3E0FEB2
:10161000A3E0FF90013112084D900132E0540FFE1B
:10162000900131E07C002400FFEC3E90011BF0A310
:10163000EFF0E02400F090011BE03404F09000F1A2
:10164000E024089000F5F0900129E0C4135407301D
:10165000E0079000F5E02404F09000F5E0FF54036B
:10166000FE6006EF2404C39EF09000F5E0D39420C2
:101670007480948040037420F090011BE0FCA3E090
:10168000FD7B017A0079F79000F5E0FF90013CE4E2
:10169000F0A3EFF09000E9E0FF1232A1900135EFE6
:1016A000F060037FFD229000F7E0900117F09000BA
:1016B000F8E0900118F09000F9E0900119F0900026
:1016C000FAE090011AF0900117E0FCA3E0FDA3E01E
:1016D000FEA3E0FF9000EBE0FBA3E0FAA3E0F91229
:1016E000080F9000FBE0900117F09000FCE09001E3
:1016F00018F09000FDE0900119F09000FEE09001DC
:101700001AF0900117E0FCA3E0FDA3E0FEA3E0FFC8
:101710009000EBE0FBA3E0FAA3E0F99000041208CC
:1017200029900129E0FFC413540730E06F9000FFB7
:10173000E0900117F0900100E0900118F090010195
:10174000E0900119F0900102E090011AF090011769
:10175000E0FCA3E0FDA3E0FEA3E0FF900008120878
:1017600029E49000F6F09000F1E0FF9000F6E0FE32
:10177000C39F507874032EF582E43401F583E0FFB3
:101780009000EEE0FBA3E0FAA3E0F98E82758300FF
:10179000EF1206B59000F6E004F080CA9000EBE08E
:1017A000FBA3E0FAA3E0F99000081208A4000000EF
:1017B00000E49000F6F09000F1E0FF9000F6E0FE0B
:1017C000C39F502874FF2EF582E43400F583E0FFB8
:1017D0009000EEE0FBA3E0FAA3E0F98E82758300AF
:1017E000EF1206B59000F6E004F080CA9000E9E040
:1017F000FFA3E0FD12445A900135EFF060037FFC37
:1018000022900135E0FF22900137EBF0A3EAF0A32C
:10181000E9F090014012085900000000E490013EF8
:10182000F0A3F090013AE0FBA3E0FAA3E0F9EA4963
:101830004B6020900137E0FBA3E0FAA3E0F9EBC096
:10184000E0EAC0E0E9C0E0A3E0FBA3E0FAA3E0F92E
:10185000120C20900137E0FBA3E475F00112070D94
:10186000A9F0FA12065D900144F0E0FFC39409402C
:1018700006EFD3940D40DCEF642060D7EFB42D0C5D
:1018800090013EE0F0A3E04403F0801D900144E0AD
:10189000B42B0C90013EE0F0A3E04401F0800A90EC
:1018A000013874FFF5F0120B3D90013DE0600464D7
:1018B000107051900137E0FBA3E0FAA3E0F91206A3
:1018C0005D6430600B90013DE07039740AF0803443
:1018D000900001120676FF64786004EFB4581C9003
:1018E000013EE0F0A3E04401F090013D7410F0905F
:1018F0000138E475F002120B3D800990013DE07063
:10190000037408F0900137E0FBA3E475F0011207BF
:101910000DA9F0FA12065D900144F0E0FFC3946156
:10192000400AEFD3947A5004EF54DFF0900144E082
:1019300024D0F0E0FFC3940A400CEF9411407B9058
:101940000144E024F9F090013DE0FF900144E0C340
:101950009F506790013EE0F0A3E04401F07E00E478
:10196000FCFDA3E0F8A3E0F9A3E0FAA3E0FB120B6F
:1019700053C8ECC8C9EDC9CAEECACBEFCB9001443D
:10198000E0FFE4FCFDFEEB2FFFEE3AFEED39FDEC4F
:1019900038FC90014012084D900140E0FCA3E0FDAE
:1019A000A3E0FEA3E0FFEC33400302190490013EE4
:1019B000E0F0A3E04404F002190490013FE020E0CD
:1019C00006E4FFFEFDFC2290013AE0FBA3E0FAA34F
:1019D000E0F9EA494B6026900137E0FBA3E0FAA367
:1019E000E024FFF9EA34FFFAEBC0E0EAC0E0E9C026
:1019F000E0A3E0FBA3E0FAA3E0F9120C2090013E83
:101A0000A3E030E21230E107E4FFFEFD7C802274A7
:101A1000FFFFFEFD7C7F2290013FE030E10FA3E05D
:101A2000FCA3E0FDA3E0FEA3E0FF02077A900140E3
:101A3000E0FCA3E0FDA3E0FEA3E0FF2290002AEE7D
:101A4000F0A3EFF0A3ECF0A3EDF09000347402F0FB
:101A5000A3E4F024FFFB740234FFFAEBF4FFEAF492
:101A6000FE90002AE05EFEA3E05FFF90002EEEF005
:101A7000A3EFF02400FFEE3402CF24FFCF34FFA306
:101A8000F0A3EFF0EBF4FFEAF4FE90002CE0FCA3EF
:101A9000E0FD90002BE02DFD90002AE03C5EFEED85
:101AA0005FFF900032EEF0A3EFF02400FFEE34026F
:101AB000CF24FFCF34FFFE900030E06E7003A3E030
:101AC0006F6003021B60FF7E1C124431123546908A
:101AD000002AE0FAA3E0FB2400FFEA341CFE900099
:101AE0002EE0FCA3E0FDC3EF9DFFEE9CFE90002CDA
:101AF000E0FCA3E0FD2FFFEC3E900036F0A3EFF0FA
:101B0000EB2DFFEA3CA3F0FCA3EFF0FD90002AE0F0
:101B1000FEA3E0FFC3900031E09FFF900030E09E05
:101B2000FE90002CE0FAA3E0FBC3EF9BFFEE9ACF00
:101B30002401CF340090003AF0A3EFF0900036E09B
:101B4000FEA3E0FF90003AE0FAA3E0FB1235849098
:101B5000002EE0FEA3E0FF12443190002E021C3064
:101B60007F007E1C12443112354690002EE0FEA309
:101B7000E0FF12443190002EE0FEA3E0FF9000361B
:101B8000EEF0A3EFF0A3741CF0A3E4F0900034E0B7
:101B9000FDA3E090003ACDF0A3EDF090003AE0FA1A
:101BA000A3E0FB7D007C1C1235847F007E1C124468
:101BB0003190002AE0FEA3E0FFC3900031E09FFFD8
:101BC000900030E09ECF2401CF3400FEC390002D62
:101BD000E09FFF90002CE09EAB07FAE42BFEEA3476
:101BE0001C900036F0A3CEF0900033E02BFE900066
:101BF00032E03A900038F0A3CEF0AE02C390003548
:101C0000E09FFF900034E09E90003AF0FAA3EFF0DE
:101C1000FB900036E0FEA3E0FFA3E0FCA3E0FD1292
:101C20003584900032E0FEA3E0FF12443190003290
:101C3000E0FEA3E0FF900036EEF0A3EFF0A3741CEB
:101C4000F0A3E4F0900034E0FCA3E0FD90003AEC57
:101C5000F0FAA3EDF0FB7D007C1C1235842290018C
:101C600022EFF0A3EDF0A3EBF0A3EAF0A3E9F0E498
:101C7000900148F090016AF0A3F0A3F0900123E0F6
:101C800075F00CA42450FFE435F0FE90012EF0FC1A
:101C9000A3EFF0FD9001227A0179301222369001F3
:101CA00048EFF060037FFF22900130E0FCA3E0FDED
:101CB000A3E0FEA3E0FF90013C12084D90013CE040
:101CC00020E7037FFE22900134E0FCA3E0FDA3E0C7
:101CD000FEA3E0FF90014012084D900138E0FCA304
:101CE000E0FDA3E0FEA3E0FF90014412084D900147
:101CF00045E0540FFE900144E07C002400FFEC3EE0
:101D000090012EF0A3EFF0E02400F090012EE034DB
:101D100004F0900124E0FBA3E0FAA3E0F912065DD1
:101D2000900149F090000112067690014AF090006F
:101D30000212067690014BF0900003120676900195
:101D40004CF090000412067690014DF090000512C0
:101D5000067690014EF090000612067690014FF044
:101D6000900007120676900150F0E4900169F0901F
:101D70000169E0FFE4FCFDFE90012AE0F8A3E0F930
:101D8000A3E0FAA3E0FBD3120788402D900127E0DF
:101D9000FBA3E0FAA3E0F9900169E0FFF582758307
:101DA00000120676FE74512FF582E43401F583EEBD
:101DB000F0900169E004F080B690012AA3A3A3E0AB
:101DC0005403FFEF605790012AA3A3A3E05403FF3D
:101DD000C374049F90016BF0E4940090016AF0904A
:101DE000012AA3A3A3E02408900169F0E490016C08
:101DF000F090016CE0FFFDD390016BE09D90016AD3
:101E0000E094004018900169E02F2451F582E434F9
:101E100001F583E4F090016CE004F080D47B017A5A
:101E200001794990012AA3A3E0FEA3E02408FFE47E
:101E30003EFE90016BE02FFF90016AE03E9001733F
:101E4000F0A3EFF090012EE0FCA3E0FD900122E072
:101E5000FF123715900148EFF060037FFC229001DC
:101E600022E0FFA3E0FDA200920112416B90014825
:101E7000EFF060037FFB22900148E0FF22E4900135
:101E800035F0A3F090013A74FFF0A37447F0A37407
:101E9000BCF0122C3790013AE4F0A3F0A3F0A37445
:101EA00010F0121807900125E0FBA3E0FAA3E0F977
:101EB00012080F90013A74FFF0A37447F0A374B8AE
:101EC000F07B007A007900122C3790012EEBF0A302
:101ED000EAF0A3E9F090013A74FFF0A37447F0A38D
:101EE00074BEF0122C3790012EEBF0A3EAF0A3E9B8
:101EF000F090013A74FFF0A37447F0A374B8F07B3C
:101F0000007A007900122C3790012EEBF0A3EAF052
:101F1000A3E9F01245B6900131EFF054016006E0FC
:101F200004A3F08006900131E0A3F0900132E0FCC0
:101F3000E4120146E4FBFAF9783F12003612017A06
:101F400090012BE0FBA3E0FAA3E0F9EF1206A390C7
:101F50000132E0C31324FFFEE434FFA3F0A3CEF06C
:101F6000E4A3F0A3F0C3900133E0648094805003B5
:101F7000022090900135E0FEA3E0FF4E705C9001DE
:101F800031E05401605490012EE0FBA3E0FAA3E09D
:101F9000F98F828E83A3120676FF75F02012063B1E
:101FA000AFF0EF3395E0FEEF2409FFE43EFE7C0046
:101FB0007D191206D7900128E0FBA3E0FAA3E0F90F
:101FC000900133E0FCA3E0F5828C83ED1206B5901E
:101FD0000135E4F0A304F002207F90012EE0FBA382
:101FE000E0FAA3E0F9900136E02401FF900135E02A
:101FF00034008F82F583120676FF75F02012063BBF
:10200000AFF0EF3395E0FEEF2409FFE43EFE7C00E5
:102010007D191206D7AF05C00790012EE0FBA3E0A3
:10202000FAA3E0F9900135E0FEA3E0F5828E831279
:102030000676FF75F02012063BAFF0EF3395E0FE19
:10204000EF2409FFE43EFE7C007D191206D7EDC4A3
:1020500054F0FED0E02EFF900128E0FBA3E0FAA3AD
:10206000E0F9900133E0FCA3E0F5828C83EF1206E7
:10207000B5900136E02402F0900135E03400F09094
:102080000134E024FFF0900133E034FFF0021F65DB
:1020900022900028EEF0A3EFF07F077E3F124483EA
:1020A000EF8EF012090E20BA007D216800FA20CCD4
:1020B00001F421F103E800002235900028E0B4018A
:1020C00008A3E0B4F403022215022232900028E0B3
:1020D000FEA3E0FFBE0707BFD0047D0180027D00A4
:1020E000BE0307BFE8047F0180027F00EF4DFF9031
:1020F0000028E0FCA3E0FDBC0B07BDB8047E018016
:10210000027E00EE4FFFBC0F07BDA0047E018002DF
:102110007E00EE4FFF900028E0FCA3E0FDBC13071B
:10212000BD88047E0180027E00EE4FFFBC1A07BD11
:102130002C047E0180027E00EE4FFF900028E0FC20
:10214000A3E0FDBC1F07BD40047E0180027E00EEBF
:102150004FFFBC0307BDE8047E0180027E00EE4F06
:102160006003022215022232900028E0FEA3E0FF65
:10217000BE0307BF41047D0180027D00BE0107BF91
:10218000F4047F0180027F00EF4DFF900028E0FC07
:10219000A3E0FDBC0307BDE8047E0180027E00EEE3
:1021A0004FFFBC0507BDDC047E0180027E00EE4FC0
:1021B000FF900028E0FCA3E0FDBC0707BDD0047E33
:1021C0000180027E00EE4FFFBC0B07BDB8047E010C
:1021D00080027E00EE4FFF900028E0B40F09A3E0DC
:1021E000B4A0047E0180027E00EE4F600280268053
:1021F00041900028E0FEA3E0FFBE1F07BF40047D22
:102200000180027D00BE0F07BFA0047F0180027F16
:1022100000EF4D601D7D027C007F097E3F121A3C5D
:10222000900028E0FCA3E0FD7F097E3F12453F02BD
:10223000459F1245DF22E0FF7B01900173E4F0A38C
:102240007403F090016DEFF0900170EBF0A3EAF0F1
:10225000A3E9F0A3E0FEA3E07802C333CE33CED8E7
:10226000F92402FFE43EFE90017DF0A3EFF0E4A329
:10227000F0D3EF9420EE940040037FFF22EC540F44
:102280002430F522EDF523900175E4F0A37402F0FB
:1022900090017DE0FEA3E0FF900175E0FCA3E0FD6E
:1022A000C39FEC9E501374222DF8E4F6E004F07006
:1022B000DF900175E004F080D790016DE0FF9001A0
:1022C00084E4F0A37400F0A37442F090017D124303
:1022D000DA90017FEFF06003E0FF22900177E4F0F5
:1022E000A37402F0E4900175F0A3F0900173E0FE96
:1022F000A3E0FFC3900176E09F900175E09E40034C
:1023000002239690017912085900000000E4FFFEB4
:10231000C3EF9404EE9400502B900177A3E0244285
:10232000F8E6FD74792FF58274013EF583EDF00F28
:10233000BF00010E900178E004F070D4900177E0C6
:1023400004F080CC900179E0FCA3E0FDA3E0FEA3C3
:10235000E0FFC004C005C006C007900175E0FEA301
:10236000E07802C333CE33CED8F9FF900170E0FBA2
:10237000A3E0FAA3E0F98F828E83D007D006D005C0
:10238000D004120829900176E004F07006900175DF
:10239000E004F00222EB90017FE0FF229000CEEFFC
:1023A000F0900190E09000E5703A74FFF0A374475C
:1023B000F0A37429F09001D3E0FFA3E09000E8CFF0
:1023C000F0A3EFF07B017A0079D4120CE67B017A5E
:1023D0000079D47D057C001240957BFF7A477930E7
:1023E0007D0C806B74FFF0A37447F0A3743DF090F4
:1023F000018EE0FFA3E09000E8CFF0A3EFF07B01B7
:102400007A0079DA120CE67B017A0079DA7D067CB3
:10241000001240959000E574FFF0A37447F0A37498
:1024200044F09001D1E0FFA3E09000E8CFF0A3EFEB
:10243000F07B017A0079D4120CE67B017A0079D422
:102440007D047C001240957BFF7A4779497D077CAB
:10245000001240959000CEE024FFFEE434FFA3F08C
:10246000A3CEF09000CFE0FEA3E0FFC3EE64809423
:1024700080407274912FF58274013EF583E0700AFA
:102480007BFF7A4779517D0280399000E574FFF037
:10249000A37447F0A37454F09000CFE0FEA3E024AF
:1024A00091F58274013EF583E09000E8F07B017ABB
:1024B0000079D1120CE6E49000D3F07B017A007928
:1024C000D17D03FC1240957BFF7A4779597D017CD1
:1024D000001240959000D0E024FFF09000CFE0344F
:1024E000FFF00224637BFF7A4679E87D017C0002DD
:1024F000409578057C007D017BFF7A47796B7E00F3
:102500007F1E1206157B017A007905123DF47B01CE
:102510007A007905123EA390002B7401F0A3740099
:10252000F0A37423F07B017A0079051227739000E1
:1025300025EBF0A3EAF0A3E9F0900025E0FBA3E08F
:10254000FAA3E0F8AC02AD037BFF7A4679F2120AF7
:10255000B9EF3395E04F700D900023E0FEA3E0FF4C
:10256000123BF680A0900025E0FBA3E0FAA3E0F880
:10257000AC02AD037BFF7A4679FA120AB9EF3395C4
:10258000E04F700E900023E0FEA3E0FF12209102C6
:102590002505900025E0FBA3E0FAA3E0F8AC02AD2E
:1025A000037BFF7A477902120AB9EF3395E04F7047
:1025B0000E900023E0FEA3E0FF1233FA02250590FF
:1025C0000025E0FBA3E0FAA3E0F8AC02AD037BFF3B
:1025D0007A477911120AB9EF3395E04F700E9000E7
:1025E00023E0FEA3E0FF1234A1022505900025E0C0
:1025F000FBA3E0FAA3E0F8AC02AD037BFF7A4779D6
:102600001B120AB9EF3395E04F700F7D01FCFF7E7E
:102610003F121A3C12459F02250578057C007D017A
:102620007BFF7A477921120AB9EF3395E04F7003A7
:1026300002459F1245CB022505900008EFF0E4FB10
:10264000EDB412004003022715902650F828287395
:102650000226860226860227150226860226860282
:1026600026860226860226860226A40226A40226A2
:10267000A40226A40226A40226A40226A40226C29C
:102680000226C20226E0900015E4F0A3741EF0902A
:102690000015E0FEA3E0FFE4FCFD90001112084DE0
:1026A00074078058900015E4F0A3743EF090001574
:1026B000E0FEA3E0FFE4FCFD90001112084D740F52
:1026C000803A900015E4F0A3740EF0900015E0FE3F
:1026D000A3E0FFE4FCFD90001112084D7403801C80
:1026E000900015E4F0A3747EF0900015E0FEA3E0E6
:1026F000FFE4FCFD90001112084D741F900015F0CE
:10270000A3F0900015E0FEA3E0FFE4FCFD90000DB7
:1027100012084D80037FFF22900011E0FCA3E0FD32
:10272000A3E0FEA3E0FF78101207AC90000DE0F8E4
:10273000A3E0F9A3E0FAA3E02FFFEA3EFEE93DFDA6
:10274000E83CFC90000912084D900009E0FCA3E071
:10275000FDA3E0FEA3E0FF90002C12084D900008BE
:10276000E0FF7D047C00123A33AB07EBAF0360025D
:102770007FFE22900028EBF0A3EAF0A3E9F090009E
:102780002E74FFF0A37447F0A374AAF090013A747A
:10279000FFF0A37447F0A374AEF0900028E0FBA311
:1027A000E0FAA3E0F9122C37900034EBF0A3EAF042
:1027B000A3E9F0C002C00190002EE0F9A3E0FAA363
:1027C000E090003AC9F0A3EAF0A3E9F0D001D0020A
:1027D000123070E94A4B70077BFF7A4779B022903C
:1027E000013A74FFF0A37447F0A374B8F07B007A49
:1027F000007900122C37900031EBF0A3EAF0A3E946
:10280000F090013A74FFF0A37447F0A374BAF0900B
:102810000034E0FBA3E0FAA3E0F9122C3790003477
:10282000EBF0A3EAF0A3E9F090013A74FFF0A3748F
:1028300047F0A374B8F07B007A007900122C37902F
:102840000034EBF0A3EAF0A3E9F0900031E0FBA341
:10285000E0FAA3E0F9122DF890002BE0FBA3E0FAD8
:10286000A3E0F9EE8FF012075B900034E0FBA3E0E9
:10287000FAA3E0F922900005EFF0A3EDF0E4900058
:102880001DF090001712085900000000E47F10FEB0
:10289000FDFC900017E0F8A3E0F9A3E0FAA3E0FB49
:1028A000C31207885038900006E0FB900017A3A3DE
:1028B000A3E02407F582E43400F583EBF0900017E1
:1028C000E0FCA3E0FDA3E0FEA3E02401FFE43EFE64
:1028D000E43DFDE43CFC90001712084D80AE9000F2
:1028E0001B7404F0A3E4F0900017120859000000D4
:1028F00000E47F80FEFDFC900017E0F8A3E0F9A360
:10290000E0FAA3E0FBC31207885058900005E0FFEF
:1029100090001BE0FCA3E0FD7B017A0079079001A9
:1029200073E4F0A37410F012371590001DEFF060FF
:10293000037FFF2290001CE02410F090001BE03485
:1029400000F0900017E0FCA3E0FDA3E0FEA3E0246C
:1029500001FFE43EFEE43DFDE43CFC90001712085C
:102960004D808E90001DE0FF2290000BEFF0A3ED54
:10297000F0A3EBF0A3EAF0A3E9F0E490001EF0A3CB
:10298000F0781E7C007D0190000DE0FBA3E0FAA32F
:10299000E0F97E007F0212061590001EE0FEA3E023
:1029A0007810CEC313CE13D8F9FFE4FCFD900016C7
:1029B00012084DE490001EF0A3F090000DE0FBA380
:1029C000E0FAA3E02402F9E43AFAC002C001782058
:1029D0007C007D01D001D0027E007F02120615909E
:1029E000001EE0FEA3E0FFE4FCFD90001A12084D7B
:1029F00090000CE075F008A424F0FEE5F03401909E
:102A00000010F0A3CEF090001AE0FCA3E0FDA3E0DC
:102A1000FEA3E0FF78101207AC900016E0F8A3E0E8
:102A2000F9A3E0FAA3E02FFFEA3EFEE93DFDE83C12
:102A3000FC90001212084D900012E0FCA3E0FDA3F0
:102A4000E0FEA3E0FF90002C12084D900010E0FC87
:102A5000A3E0FD90000BE0FF023A3390000BEFF093
:102A6000A3EDF0A3EBF0A3EAF0A3E9F0E490001EDD
:102A7000F0A3F0781E7C007D0190000DE0FBA3E048
:102A8000FAA3E0F97E007F0212061590001EE0FE18
:102A9000A3E07810CEC313CE13D8F9FFE4FCFD9069
:102AA000001612084DE490001EF0A3F090000DE017
:102AB000FBA3E0FAA3E02402F9E43AFAC002C00161
:102AC00078207C007D01D001D0027E007F021206BA
:102AD0001590001EE0FEA3E0FFE4FCFD90001A123A
:102AE000084D90000CE075F008A424F4FEE5F034E5
:102AF00001900010F0A3CEF090001AE0FCA3E0FDDE
:102B0000A3E0FEA3E0FF78101207AC900016E0F8F7
:102B1000A3E0F9A3E0FAA3E02FFFEA3EFEE93DFDC2
:102B2000E83CFC90001212084D900012E0FCA3E07B
:102B3000FDA3E0FEA3E0FF90002C12084D900010D2
:102B4000E0FCA3E0FD90000BE0FF023A33900005AB
:102B5000EFF0A3EBF0A3EAF0A3E9F090000EE4F0AD
:102B6000A37406F0E4A3F0EC540F2430F522EDF545
:102B700023900005E0FF900184E4F0A37400F0A32B
:102B80007442F0A3E4F0A374061243E5900010EF42
:102B9000F06003E0FF22900006E0FBA3E0FAA3E070
:102BA000F912088A000000009000097402F09000F9
:102BB00009E0FFC3940674809480507574422FF826
:102BC000E6FFE4FCFDFEA312084D900006E0FBA327
:102BD000E0FAA3E0F9C003C002C0011207BFC004BD
:102BE000C005C006C00790000AE0FCA3E0FDA3E01A
:102BF000FEA3E0FF900009E024FE75F008A4F9F8B8
:102C00001207ACA804A905AA06AB07D007D006D0C6
:102C100005D004EF2BFFEE3AFEED39FDEC38FCD089
:102C200001D002D00312080F900009E004F0022B3B
:102C3000AE900010E0FF22900137EBF0A3EAF0A382
:102C4000E9F0900137E0FBA3E0FAA3E04A4B7015EE
:102C50009001DAE0F9A3E0FAA3E0900137C9F0A30C
:102C6000EAF0A3E9F0900137E0FBA3E0FAA3E04A21
:102C70004B7004FBFAF92290013AE0F9A3E0FAA3C1
:102C8000E0900140C9F0A3EAF0A3E9F0900137E039
:102C9000FBA3E0FAA3E0F912382A900138EE8FF096
:102CA000120B3D900137E0FBA3E0FAA3E0F9120616
:102CB0005D7012F99001DAC9F0A3F0A3E9F07B008E
:102CC0007A0079002290013AE0F9A3E0FAA3E090BB
:102CD0000140C9F0A3EAF0A3E9F0900137E0FBA3BB
:102CE000E0FAA3E0F912392F9001DAEBF0A3EAF051
:102CF000A3E9F04A4B60189001DAE0FBA3E0FAA3E5
:102D0000E0F9E41206A39001DB75F001120B3D908F
:102D10000137E0FBA3E0FAA3E0F9229000CDEBF04D
:102D2000A3EAF0A3E9F078D17C007D017BFF7A472C
:102D3000795B7E007F0C1206159001257401F0A3CB
:102D40007401F0A3741DF0A37401F0A37400F0A348
:102D500074DDF0A37401F0A37401F0A37421F0906A
:102D600000CDE0FBA3E0FAA3E0F9121E7D9000D1B4
:102D7000120859000000009000D512085900000008
:102D8000009000D912085900000000900120E09046
:102D900000D1F090011FE09000D2F090011EE09071
:102DA00000D3F090011DE09000D4F0900121E0FFED
:102DB0001200039000D5EFF07B017A0079D07D02FC
:102DC000E4FF123E4C9000D0E030E0EC900127741C
:102DD00001F0A37400F0A374DDF0900121E0FFE4A2
:102DE000FCFDFE90012A12084DD2007B017A007989
:102DF000D17D02E4FF021C5E900037EBF0A3EAF005
:102E0000A3E9F0900037E0FBA3E0FAA3E0F9120693
:102E10005DFF1245F3500C900038E475F001120B81
:102E20003D80E0D200900037E0FBA3E0FAA3E0F998
:102E300012065DFF642B6004EFB42D1D900037E097
:102E4000FBA3E475F00112070DA9F0FA12065D6408
:102E50002D6003D38001C39200E490003AF0A3F008
:102E6000900037E0FBA3E0FAA3E0F912065DFF1241
:102E700046695042900037E0FBA3E0FAA3E0F91264
:102E8000065DFF3395E0FEEF24D0FBEE34FFFA90B1
:102E9000003AE0FEA3E0FF7C007D0A120AD6EF2B89
:102EA000FFEE3A90003AF0A3EFF0900038E475F0AE
:102EB00001120B3D80AA30000A90003AE0FEA3E028
:102EC000FF800F90003AE0FEA3E0FFC3E49FFFE421
:102ED0009EFE22900007EFF0900009EBF0A3EAF0CD
:102EE000A3E9F0900008EDF0E4FBFAED70037F9C9D
:102EF0002290000C7404F0A3E4F090000CE0FEA318
:102F0000E0FFE4FCFD90001212084D90000C740FDD
:102F1000F0A37460F0900009E0FBA3E0FAA3E0F9ED
:102F200012065D5407C43354E0FE90000CE0541FB9
:102F3000FCA3E0FDEC4EFFED90000CCFF0A3EFF012
:102F400090000CE0FEA3E0FFE4FCFD78101207AC5B
:102F5000900012E0F8A3E0F9A3E0FAA3E02FFFEA63
:102F60003EFEE93DFDE83CFC90000E12084D90004D
:102F700008E075F00CA42450FBE435F0FAAD03FC36
:102F8000C004C00590000EE0FCA3E0FDA3E0FEA39A
:102F9000E0FF90002C12084D900007E0FFD005D014
:102FA00004123A3322900007EFF0A3EDF0E4A3F00F
:102FB000A3F09000177404F0A37480F0900017E061
:102FC000FEA3E0FFE4FCFD90000F12084D900017F7
:102FD0007407F0A37460F012065D5407C43354E024
:102FE000FE900017E0541FFCA3E0FDEC4EFFED90B7
:102FF0000017CFF0A3EFF0900017E0FEA3E0FFE48E
:10300000FCFD90001312084D900008E075F00CA430
:103010002450FEE435F0A3F0A3CEF0900013E0FCC2
:10302000A3E0FDA3E0FEA3E0FF78101207AC900040
:103030000FE0F8A3E0F9A3E0FAA3E02FFFEA3EFED9
:10304000E93DFDE83CFC90000B12084D90000BE0C0
:10305000FCA3E0FDA3E0FEA3E0FF90002C12084DCE
:10306000900009E0FCA3E0FD900007E0FF023A3386
:10307000900037EBF0A3EAF0A3E9F0A3E0FBA3E0B4
:10308000FAA3E0F912065D700302311C900037E0EC
:10309000FBA3E0FAA3E0F912065D70030231289069
:1030A000003AE0F9A3E0FAA3E0A3C9F0A3EAF0A391
:1030B000E9F0900037A3E0FAA3E0F9900040EBF0CC
:1030C000A3EAF0A3E9F090003DE0FBA3E0FAA3E05F
:1030D000F912065DFF6026900040E0FBA3E0FAA332
:1030E000E0F912065D6F701590003E75F001120B4D
:1030F0003D900041E475F001120B3D80C990003D08
:10310000E0FBA3E0FAA3E0F912065D7002800D90E7
:103110000038E475F001120B3D02308C900037E06E
:10312000FBA3E0FAA3E0F9227B007A00790022EF0A
:103130008EF012090E31D6007D314501F431BA030B
:10314000E8000031E6BC030BBDE808E4900008F09D
:103150000231E6BC070CBDD0099000087401F002F2
:1031600031E6BC0B0BBDB8089000087402F0807605
:10317000BC0F0BBDA0089000087403F08068BC135E
:103180000BBD88089000087404F0805ABC1A0BBD6F
:103190002C089000087405F0804CBC1F0BBD400843
:1031A0009000087406F0803EED64107003EC642714
:1031B00070349000087407F0802CBC0F0BBDA00881
:1031C000900008740FF0801EBC1F1BBD40189000BB
:1031D000087410F08010AE04AF05BE0109BFF406FC
:1031E0009000087411F0900008E0FF2290000CEFAE
:1031F000F0A3EBF0A3EAF0A3E9F0900015E4F0A34C
:103200007404F0E4A3F0EC540F2430F522EDF52320
:1032100090000CE0FF900184E4F0A37400F0A3742C
:1032200042F0A3E4F0A374041243E5900017EFF01A
:103230006003E0FF2290000DE0FBA3E0FAA3E0F9B9
:10324000E4F5F012075B9000107402F0900010E0BB
:10325000FBC3940474809480504174422BF8E6FFC1
:10326000E4FCFDFEA312084D900011E0FCA3E0FD7C
:10327000A3E0FEA3E0FFEB24FE75F008A4F9F8122A
:1032800007AC90000DE0FBA3E0FAA3E0F9EE8FF0AD
:10329000120723900010E004F080B1900017E0FFC7
:1032A00022900136EFF0900139EBF0A3EAF0A3E9A8
:1032B000F090013DE02402FF90013CE03400FE90DC
:1032C000013EF0A3EFF0E4A3F0D3EF9420EE9400DE
:1032D00040037FFF22EC540F2430F522EDF5237FCD
:1032E000027E00D390013FE09F90013EE09E400DA2
:1032F00074222FF8E4F60FBF00010E80E69001362D
:10330000E0FF900184E4F0A37400F0A37442F09015
:10331000013E1243DA900140EFF0E4FEFFD390014A
:103320003DE09F90013CE09E402074442FF8E6FD74
:10333000900139E0FBA3E0FAA3E0F98F828E83EDE0
:103340001206B50FBF00010E80D3900140E0FF22AE
:10335000C0E0C0F0C083C082C0D075D000C000C043
:1033600001C002C003C004C005C006C00775A72085
:10337000E5F854F0F4440F52F8AF9BEF30E360905F
:1033800001D5E06038E5A120E033300A0C9001D887
:10339000E0F8A6A3E004F08006900000E5A3F0901A
:1033A00001D5E014F0E0700D300C05300902D2FABE
:1033B0001246E780089001D5E09001D7F09001D641
:1033C000E0601C30F919300B0D9001D9E0F8E6F5FA
:1033D000A3E004F0800375A3009001D6E014F0D0C0
:1033E00007D006D005D004D003D002D001D000D041
:1033F000D0D082D083D0F0D0E032900028EEF0A37D
:10340000EFF0640C4E7F0070027F01900028E0FC1A
:10341000A3E0FD64084C7E0070027E01EE4FFFEDDC
:1034200064104C7E0070027E01EE4FFF900028E099
:10343000FCA3E0FD64144C7E0070027E01EE4FFFA1
:10344000ED64184C7E0070027E01EE4FFF90002864
:10345000E0FCA3E0FD64204C7E0070027E01EE4F94
:10346000FFED64304C7E0070027E01EE4FFF900055
:1034700028E07004A3E064407E0070027E01EE4FFD
:10348000601B7D017C007F027E3F121A3C90002869
:10349000A3E0FD7F027E3F12440802459F1245DFF4
:1034A00022900028EEF0A3EFF064014E7F0070023E
:1034B0007F01900028E0FCA3E0FD4C7E0070027EBE
:1034C00001EE4FFFED64024C7E0070027E01EE4F74
:1034D000FF900028E0FCA3E0FD64034C7E00700236
:1034E0007E01EE4FFFED64044C7E0070027E01EE23
:1034F0004FFF900028E0FCA3E0FD64054C7E0070C7
:10350000027E01EE4FFFED64064C7E0070027E01EC
:10351000EE4FFF900028E07004A3E064077E007087
:10352000027E01EE4F601B7D017C007F0F7E3F120B
:103530001A3C900028A3E0FD7F0F7E3F1244080252
:10354000459F1245DF22900036741CF0A3E4F090F2
:10355000002EE0FEA3E0FF900038EEF0A3EFF0C3F2
:1035600090002BE09FFF90002AE09E90003AF0A38D
:10357000EFF0900038E0FCA3E0FDA3E0FAA3E0FB4D
:103580007F007E1C90003CEEF0A3EFF0A3ECF0A3D4
:10359000EDF0A3EAF0A3EBF0E4A3F0A3F090004079
:1035A000E0FEA3E0FFA3E0FCA3E0FDC39FEC9E5080
:1035B0003890003FE02DFF90003EE03CFE124607B1
:1035C000AD07900042E0FEA3E0FF90003DE02FFF3A
:1035D00090003CE03EFE124408900043E004F0708E
:1035E000BC900042E004F080B4229000CEEBF0A347
:1035F000EAF0A3E9F07B017A0079D51244F7900054
:10360000D5E030E0269000D1E0F9A3E0FAA3E09005
:1036100000E5C9F0A3EAF0A3E9F09000D4E090003F
:10362000E8F07B017A0079D61241AE9000D7E054E1
:1036300007FE9000D6E07C002400FFEC3EF99000ED
:10364000CEE0FBA3E0FAA3E0C98FF012075B900085
:10365000D7E0FE9000D6E02400FFEC3E9001D1F0D0
:10366000A3EFF09000D9E0541FFE9000D8E02400B2
:10367000FFEC3E90018EF0A3EFF09000DAE0C4542E
:1036800001900190F022120032787FE4F6D8FD75A7
:1036900081610236D00246D5E493A3F8E493A340B7
:1036A00003F68001F208DFF48029E493A3F85407BD
:1036B000240CC8C333C4540F4420C8834004F456B8
:1036C000800146F6DFE4800B0102040810204080F0
:1036D000904316E47E019360BCA3FF543F30E5099C
:1036E000541FFEE493A360010ECF54C025E060A8F0
:1036F00040B8E493A3FAE493A3F8E493A3C8C58283
:10370000C8CAC583CAF0A3C8C582C8CAC583CADFF0
:10371000E9DEE780BE90016DEFF0900170EBF0A361
:10372000EAF0A3E9F0900174E02402FF900173E055
:103730003400FE900175F0A3EFF0E4A3F0D3EF9412
:1037400020EE940040037FFF22EC540F2420F5224A
:10375000EDF523E4FFFED3900174E09F900173E048
:103760009E4020900170E0FBA3E0FAA3E0F98F8275
:103770008E83120676FD74242FF8A6050FBF000174
:103780000E80D390016DE0FF900184E4F0A37400FB
:10379000F0A37442F09001751243DA900177EFF0D4
:1037A0002290018CE0FEC202ACA775A720C2AEE554
:1037B000A120E7FB200D03124619439A04300C05A3
:1037C000300902C2FA90018CE0F9604C30F913EE36
:1037D0006010EB30E108A807E6F5A30F8003E4F5DD
:1037E000A31EE5A120E01AE96017EB30E007A80569
:1037F000A6A30D800690018DE5A3F090018CE01446
:10380000F0200CC13009BE200209E5A130E3B6D298
:103810000280B2E5A120E3AD300C05300902D2FAF6
:10382000AF048FA790018CE0FF2290013DEBF0A345
:10383000EAF0A3E9F0E4900143F0A3F0E4FEFF9086
:103840000140E0FBA3E0FAA3E0F98F828E83120629
:1038500076FD601890013DE0FBA3E0FAA3E0F912C9
:10386000065D6D60070FBF00010E80D3900140E040
:10387000FBA3E0FAA3E0F98F828E83120676700232
:103880008023900144E004F07006900143E004F0CE
:1038900090013DE0FBA3E475F001120B3DA9F0FAA5
:1038A00012065D7097900143E0FEA3E0FF22E4FF63
:1038B0007E3F124607EFF47075FF7E3F1244317D64
:1038C000027F017E3F1244087D107F027E3F12443A
:1038D00008E4FD7F037E3F1244087DDA7F047E3FCB
:1038E000124408E4FD7F057E3F1244087D017F06F7
:1038F0007E3F1244087DFA7C007F077E3F12453FE1
:103900007DE87C037F097E3F12453FE4FD7F0B7E0F
:103910003F124408E4FD7F0C7E3F124408E4FD7F23
:103920000F7E3F124408E4FDFF7E3F1244082290C0
:10393000013DEBF0A3EAF0A3E9F0900140E0F9A328
:10394000E0FAA3E0A3C9F0A3EAF0A3E9F0900143F1
:10395000E0FBA3E0FAA3E0F912065DFF601D900111
:103960003DE0FBA3E0FAA3E0F912065D6F600C9066
:103970000144E475F001120B3D80D2900143E0FB5D
:10398000A3E0FAA3E0F912065D600C90013DE0FBB4
:10399000A3E0FAA3E0F92290013DE0FBA3E475F077
:1039A0000112070DA9F0FA12065D708EFBFAF922DA
:1039B000900005EFF0A37407F0A37460F090000688
:1039C000E0FEA3E0FFE4FCFD90000C12084D900027
:1039D000067404F0A37490F0900006E0FEA3E0FFEC
:1039E000E4FCFD78101207AC90000CE0F8A3E0F9BD
:1039F000A3E0FAA3E02FFFEA3EFEE93DFDE83CFC30
:103A000090000812084D900008E0FCA3E0FDA3E040
:103A1000FEA3E0FF90002C12084D900005E0FFE4AB
:103A2000FDFC123A33EF60037FFF2222900008E092
:103A3000FF7C00900029EFF0900030E4F0A37406C2
:103A4000F0E4FBEC540F2420F522EDF523E4FAEA30
:103A5000C3940474809480502190002CE0FCA3E077
:103A6000FDA3E0FEA3E0FFEA75F008A4F9F8120751
:103A70009974242AF8A6070A80D5900029E0FF90BF
:103A80000184E4F0A37400F0A37442F0900030E0ED
:103A9000FDA3E0900187CDF0A3EDF07B007A0079E3
:103AA000220243EC900005EFF0A3EBF0E4A3F0A3B7
:103AB000F0ED70037F9C22ED75F00CA42450FEE421
:103AC00035F0900007F0A3CEF0E4A3F0A3F090004F
:103AD00005E0FF900007E0FCA3E0FD7B017A0079A0
:103AE0000A123F55EF60037FFF2290000AE0FF902B
:103AF0000006E0540FFEEF4E90000AF0900005E043
:103B0000FF900007E0FCA3E0FD90000AE0FB1241FB
:103B1000F7EF60037FFE222290000CEAF0A3EBF0A7
:103B2000A907A3E4F0A37404F0E4FBEC540F2420F1
:103B3000F522EDF523E4FDEDC394027480948050EA
:103B400023ED75F008A4FF90000CE0FEA3E0A807A9
:103B5000088005CEC313CE13D8F9FF74242DF8A620
:103B6000070D80D3AF01900184E4F0A37400F0A3AB
:103B70007442F090000EE0FDA3E0900187CDF0A329
:103B8000EDF07B007A0079220243EC90002CEBF000
:103B9000A3EAF0A3E9F0A3ECF0A3EDF0E490003386
:103BA000F0A3F0900031E0FEA3E0FFA3E0FCA3E06F
:103BB000FDC39FEC9E5033900030E02DFF90002F0E
:103BC000E03CFE12460790002CE0FBA3E475F001F8
:103BD00012070DA9F0FAEF1206A3900034E004F0EA
:103BE00070C1900033E004F080B990002CE0FBA39A
:103BF000E0FAA3E0F922900028EEF0A3EFF064FAD7
:103C00004E7F0070027F01900028E0FCA3E0FD647D
:103C10007D4C7E0070027E01EE4FFFBC0107BDF4BB
:103C2000047E0180027E00EE4FFF900028E0B40386
:103C300009A3E0B4E8047E0180027E00EE4F601D1F
:103C40007D027C007F077E3F121A3C900028E0FC3A
:103C5000A3E0FD7F077E3F12453F02459F1245DFEF
:103C600022900005EFF0A3ECF0A3EDF0E4A3F0A3A5
:103C7000F0900008F0A3741EF0E4A3F0A3F090000D
:103C800005E0FF900008E0FCA3E0FD7B017A0079ED
:103C90000A1231ECEF60037FFF22900006E0FEA3E2
:103CA000E0541FFF90000AE04EF0A3E04FF09000B8
:103CB00005E0FF900008E0FCA3E0FDA3E0FAA3E02C
:103CC000FB123B18EF60037FFE22229000E5EFF02D
:103CD0009000E7EBF0A3EAF0A3E9F09000E6EDF046
:103CE000E4FFFBFAED70037F9C229000EA12085972
:103CF000000000009000E6E075F00CA42454FBE402
:103D000035F0FA9000E5E0FFAC02AD037B017A00EC
:103D100079EA123F55EF60037FFF229000EAE054FA
:103D20000FFE9000E7E0FBA3E0FAA3E0F9EE120635
:103D3000A32290002EEBF0A3EAF0A3E9F090002C70
:103D4000EEF0A3EFF0900033EEF0A3EFF09000312F
:103D5000E0FEA3E0FF90002DE02FFD90002CE03E60
:103D6000FC900033E0FEA3E0FFC39DEE9C50279043
:103D7000002EE0FBA3E475F00112070DA9F0FA1282
:103D8000065DFD124408900034E004F070BF90001E
:103D900033E004F080B72278017C007D017BFF7A5C
:103DA0004779677E007F041206157B017A0079014E
:103DB000123DF478017C007D017BFF7A4679EA129E
:103DC0000AB9EF3395E04F70051224F280DC7801D8
:103DD0007C007D017BFF7A4679EE120AB9EF3395BC
:103DE000E04F700B1242A91245821240DD80BB12D7
:103DF00045CB80B69000CDEBF0A3EAF0A3E9F0E468
:103E0000FFFE9000CDE0FBA3E0FAA3E0F974FF2FE2
:103E1000F58274FF3EF583120676640A60153098C9
:103E2000E18F828E83E5991206B5C2980FBF00011B
:103E30000E80CF9000CDE0FBA3E0FAA3E0F974FF81
:103E40002FF58274FF3EF583E40206B5900122EF60
:103E5000F0A3EDF0A3EBF0A3EAF0A3E9F0E4FFFD9B
:103E6000FCA312085900000000900123E075F00C3B
:103E7000A42454FDE435F0FC900122E0FF7B017A9C
:103E8000017927123F55EF60037FFF22900127E061
:103E90005417FE900124E0FBA3E0FAA3E0F9EE1230
:103EA00006A322900028EBF0A3EAF0A3E9F0E4A334
:103EB000F0A3F0900028E0FBA3E0FAA3E0F9A3E070
:103EC000FEA3E0F5828E83120676FF602B12462A4F
:103ED000900028E0FBA3E0FAA3E0F9A3E0FCA3E054
:103EE000F5828C83EF1206B590002CE004F070C3CD
:103EF00090002BE004F080BB2290000112085900D2
:103F000000000090002C12085955BB66CC7404FDCB
:103F1000FCE4FF123A337B017A0079017404FDFC62
:103F2000E4FF122B4D7FCC7E667DBB7C559000015B
:103F3000E0F8A3E0F9A3E0FAA3E0FBC3120788606E
:103F40000CD292124582C29212458280F422E0FC89
:103F5000A3E0FD7B0190012BEFF0A3EBF0A3EAF0CF
:103F6000A3E9F0A3E4F0A37403F0EC540F2430F5BC
:103F700022EDF523E4F52490012BE0FF900184E489
:103F8000F0A37400F0A37442F0A3E4F074031243AE
:103F9000E490012CE0FBA3E0FAA3E0F9E54402067B
:103FA000A37F037E3F124607900005EFF07F057E5A
:103FB0003F124607900006EFF078077C007D017BFA
:103FC000FF7A4779C47E007F04120615900006E050
:103FD000FFA3E054F8FE900007EEF0A3EFF0A3E09B
:103FE00054BFF0900005E0FD7B017A007907E4FF03
:103FF000022A5B900006EDF0900005EFF0E49000DF
:1040000007F0FE7B017A0079077D03FC123F55AE75
:1040100007EE60037FFF22900007E054F8F0E0FF16
:10402000900006E0FEEF4EA3F0900005E0FF900048
:1040300007E0FB7D037C001241F7AE07EEAF0660A0
:10404000027FFE227F037E3F124607900005EFF0BD
:104050007F047E3F124607900006EFF078077C0051
:104060007D017BFF7A4779C07E007F0412061590A0
:104070000006E0FFA3E054F8FE900007EEF0A3EF87
:10408000F0900005E0FD7B017A007907E4FF02294A
:10409000697BFF7C009000E2EBF0A3EAF0A3E9F07B
:1040A000A3ECF0A3EDF0E4FFFED39000E6E09FEE7A
:1040B0006480F89000E5E064809840209000E2E0A1
:1040C000FBA3E0FAA3E0F98F828E83120676F599BE
:1040D0003099FDC2990FBF00010E80CD227B017A7D
:1040E000007905123DF47B017A007905122D1B78C9
:1040F000057C007D017BFF7A477926120AB9EF33F0
:1041000095E04F700512412680D378057C007D0133
:104110007BFF7A477921120AB9EF3395E04F6005AA
:104120001245CB80B8227F027E3F1246079000CD19
:10413000EFF09000D17401F0A37401F0A37491F03A
:104140009000CDE09000D4F07B017A0179D3123554
:10415000EA1245829000CDE0FF12239C7BFF7A4655
:1041600079E87D017C0012409580C7AB07E4FAED49
:1041700075F00CA42451FEE435F090016DF0A3CE4F
:10418000F0A312085900000000300106900170747D
:1041900003F0AF0390016DE0FCA3E0FD900170E03F
:1041A000FB1241F7AA07EAAF0260027FFF229000EC
:1041B000E2EBF0A3EAF0A3E9F07F067E3F124607A8
:1041C000AD079000E5E0F9A3E0FAA3E09000EEC9A6
:1041D000F0A3EAF0A3E9F09000E8E09000F1F0909D
:1041E00000E2E0FBA3E0FAA3E0F9E4FF021579FFA7
:1041F000E0FCA3E0FDAB06AA07900173E4F0A37412
:1042000003F0EC540F2420F522EDF523AF038F24A7
:10421000AF02900184E4F0A37400F0A37442F0A311
:10422000E4F0A37403F07B007A0079220243EC7F70
:10423000077E3F124483900005EEF0A3EFF07F0964
:104240007E3F124483AD07AC06900005E0FEA3E07C
:10425000FF12312F900007EFF0FD7B01E4FF1246C3
:104260004B900007E0FD7B01E4FF02465A900005F9
:10427000EFF0E4FEA3F07B017A0079067D0C7C0E62
:10428000123F55AE07EE60037FFF22900006E04428
:1042900001F0900005E0FFA3E0FB7D0C7C0E1241D5
:1042A000F7EF7F0060027FFE221238AEE4FF124477
:1042B000D2E4FF12426D7DFFE4FF122875E4FF1285
:1042C00039B012434812437A124044123FA11245BA
:1042D0006112422F12463B7D037C00E4FF123C61D9
:1042E000024678AA07E4FE900006E030000544800C
:1042F000F08003547FF0EB541FFF900006E054E081
:104300004FF0ED24D0FFE43401AD07FCAF02E0FB39
:104310001241F7AE0722C109C10CC10DC10AC10B80
:104320004101D5004101D6004101D7004101D9002A
:104330004101D8004201D1000042018E000042013B
:10434000D3000041019000007F017E3F124607909C
:104350000005EFF07F027E3F12460712451BEF5427
:1043600007FF900006E054F84FF0900005E0FD7B59
:10437000017A007906E4FF022FA57F067E3F1246F0
:1043800007900005EFF07F027E3F12460712451BA3
:10439000EF5407FF900006E054F84FF0900005E05E
:1043A000FD7B017A007906E4FF022ED3900001E53F
:1043B000A7F01246C11246911246C812469B1246F9
:1043C000CF1246DB1246861246A51246DF1246AFD2
:1043D0001246E3900001E0F5A722E0FDA3E0900182
:1043E00087CDF0EDA3F07B007A007922E4FEC28352
:1043F000AF01900184A3A3E0FDA3A3E090018CF0A2
:104400007B031237A1D28322A2AF9200C2AF75FF05
:104410008075EF028F828E8375B7A575B7F1438FD4
:104420000175FF8075EF02EDF0538FFEA20092AF91
:1044300022A2AF9200C2AF75FF8075EF028F828E0D
:104440008375B7A575B7F1438F0375FF8075EF02CC
:10445000E4F0538FFCA20092AF22AC07E490013647
:10446000F0A3F0ED75F00CA42451FBE435F0FA90C4
:1044700001367401F0A3E4F0AF04AC02AD037B019C
:104480000241F77B017A00792AAD07AC0690003132
:10449000E4F0A37402F0123B8B90002BE0FE90003E
:1044A0002AE07C002400FFEC3EFE22EFB40A0774F1
:1044B0000D1244B6740A309811A899B8130CC2981A
:1044C0003098FDA899C298B811F63099FDC299F5B7
:1044D00099227D027C00E4FEF522F523900184F010
:1044E000A37400F0A37442F0A3ECF0A3EDF07B0002
:1044F0007A0079220243EC9000E2EBF0A3EAF0A309
:10450000E9F07F067E3F124607AD079000E2E0FB30
:10451000A3E0FAA3E0F9E4FF023CCBEF24D0600C67
:1045200024F0600C2420700C7E0580107E06800C28
:104530007E078008EF1313543F24FEFEAF0622AB24
:1045400007AA06ED90002AF0ECA3F0AE02AF037BC1
:10455000017A00792A900031E4F0A37402F0023D60
:10456000327F037E3F124607900005EFF07F067E04
:104570003F124607900005E0FDAB07D200E4FF02C2
:1045800042E37F0FEFD394007480948040107DE865
:104590007C03ED1D70011CED4C70F71F80E6227B43
:1045A000FF7A4779A77D027C001240957BFF7A470E
:1045B00079981D024095E4FFFE12065D600C0FEF36
:1045C00070010E09E970F20A80EF227A4779897D3D
:1045D0000E1240917BFF7A4779987D010240957ACF
:1045E00047799A7D0C1240917BFF7A4779987D013B
:1045F000024095EFC394094005EF940E4004EFB4D8
:104600002003D38001C322A2AF9200C2AF8F828E5B
:1046100083E493FFA20092AF22E5A1A2E6920CE50B
:10462000F8540C24FF9209D20D22EFC39461400A82
:10463000EF947B5005EF24E0FF22227F067E3F129D
:104640004607AD077B01E4FF023AA4E4FEEB6401F8
:104650007005122639AE07AF0622E4FEEB64017046
:1046600005121104AE07AF0622EFC394304007EFE6
:10467000943A50028001C3227F0F7E3F124607AD5D
:1046800007E4FF023FF3AF88758800758D968F8829
:1046900022E4F5A775A45D75D4C822E4F5A775E3F7
:1046A0004075E10322758E08758920438840227584
:1046B000A21743A14043F80D221243ACD2AF023EF1
:1046C000F97597DE7597AD2275A51D75D58422E421
:1046D000F5A9F5A9221246B9023D9775EF022243CA
:1046E00098102275A84022220A002B2B2B002D2D7A
:1046F0002D0043414E4E4454520043414E444454D5
:10470000520043414E5041594C4F414453495A4540
:104710000043414E4F504D4F444500524553455480
:104720000045584954002B2D00307825303358006F
:10473000202020202020202020202020003078252C
:1047400030345800253034580020202020202020EC
:1047500000303000253032580020000000000000FA
:104760000000000000000000000000000000000049
:104770000000000000000000000000000000000039
:10478000000000000000000000494E56414C494422
:1047900020434F4D4D4144000A00494E56414C497B
:1047A000442044415441004F4B0041542B003D00F4
:1047B000494E56414C49440000002B00200078002F
:0847C0000000000000000000F1
:00000001FF
